{
  "abi": [
    {
      "inputs": [
        {
          "internalType": "address",
          "name": "hub",
          "type": "address"
        },
        {
          "internalType": "address",
          "name": "moduleGlobals",
          "type": "address"
        }
      ],
      "stateMutability": "nonpayable",
      "type": "constructor"
    },
    {
      "inputs": [],
      "name": "CollectionAddressCannotBeZero",
      "type": "error"
    },
    {
      "inputs": [],
      "name": "CurrencyNotWhitelisted",
      "type": "error"
    },
    {
      "inputs": [],
      "name": "NotHub",
      "type": "error"
    },
    {
      "inputs": [],
      "name": "TipAmountCannotBeZero",
      "type": "error"
    },
    {
      "inputs": [],
      "name": "HUB",
      "outputs": [
        {
          "internalType": "address",
          "name": "",
          "type": "address"
        }
      ],
      "stateMutability": "view",
      "type": "function"
    },
    {
      "inputs": [],
      "name": "MODULE_GLOBALS",
      "outputs": [
        {
          "internalType": "contract IModuleGlobals",
          "name": "",
          "type": "address"
        }
      ],
      "stateMutability": "view",
      "type": "function"
    },
    {
      "inputs": [
        {
          "internalType": "uint256",
          "name": "profileId",
          "type": "uint256"
        },
        {
          "internalType": "uint256",
          "name": "pubId",
          "type": "uint256"
        },
        {
          "internalType": "address",
          "name": "",
          "type": "address"
        },
        {
          "internalType": "bytes",
          "name": "data",
          "type": "bytes"
        }
      ],
      "name": "initializePublicationAction",
      "outputs": [
        {
          "internalType": "bytes",
          "name": "",
          "type": "bytes"
        }
      ],
      "stateMutability": "nonpayable",
      "type": "function"
    },
    {
      "inputs": [
        {
          "components": [
            {
              "internalType": "uint256",
              "name": "publicationActedProfileId",
              "type": "uint256"
            },
            {
              "internalType": "uint256",
              "name": "publicationActedId",
              "type": "uint256"
            },
            {
              "internalType": "uint256",
              "name": "actorProfileId",
              "type": "uint256"
            },
            {
              "internalType": "address",
              "name": "actorProfileOwner",
              "type": "address"
            },
            {
              "internalType": "address",
              "name": "transactionExecutor",
              "type": "address"
            },
            {
              "internalType": "uint256[]",
              "name": "referrerProfileIds",
              "type": "uint256[]"
            },
            {
              "internalType": "uint256[]",
              "name": "referrerPubIds",
              "type": "uint256[]"
            },
            {
              "internalType": "enum Types.PublicationType[]",
              "name": "referrerPubTypes",
              "type": "uint8[]"
            },
            {
              "internalType": "bytes",
              "name": "actionModuleData",
              "type": "bytes"
            }
          ],
          "internalType": "struct Types.ProcessActionParams",
          "name": "params",
          "type": "tuple"
        }
      ],
      "name": "processPublicationAction",
      "outputs": [
        {
          "internalType": "bytes",
          "name": "",
          "type": "bytes"
        }
      ],
      "stateMutability": "nonpayable",
      "type": "function"
    }
  ],
  "bytecode": {
    "object": "0x60c060405234801561001057600080fd5b506040516107dc3803806107dc83398101604081905261002f91610062565b6001600160a01b039182166080521660a052610095565b80516001600160a01b038116811461005d57600080fd5b919050565b6000806040838503121561007557600080fd5b61007e83610046565b915061008c60208401610046565b90509250929050565b60805160a05161070f6100cd60003960008181607f015261027201526000818160d10152818161010001526101f1015261070f6000f3fe608060405234801561001057600080fd5b506004361061004c5760003560e01c80630b9602201461005157806388ffe8511461007a57806390ce6e08146100b9578063a4c52b86146100cc575b600080fd5b61006461005f366004610486565b6100f3565b604051610071919061051c565b60405180910390f35b6100a17f000000000000000000000000000000000000000000000000000000000000000081565b6040516001600160a01b039091168152602001610071565b6100646100c736600461056a565b6101e4565b6100a17f000000000000000000000000000000000000000000000000000000000000000081565b6060336001600160a01b037f0000000000000000000000000000000000000000000000000000000000000000161461013e576040516313bd2e8360e31b815260040160405180910390fd5b60008061014d848601866105ad565b60008a8152602081815260408083208c8452825280832080546001600160a01b038088166001600160a01b0319928316179092558e8552600184528285208e8652845293829020805491861691909416179092558151601f8901829004820281018201909252878252929450909250908690869081908401838280828437600092019190915250929b9a5050505050505050505050565b6060336001600160a01b037f0000000000000000000000000000000000000000000000000000000000000000161461022f576040516313bd2e8360e31b815260040160405180910390fd5b6000806102406101008501856105e6565b81019061024d9190610634565b6040516343b938c560e01b81526001600160a01b0380841660048301529294509092507f0000000000000000000000000000000000000000000000000000000000000000909116906343b938c590602401602060405180830381865afa1580156102bb573d6000803e3d6000fd5b505050506040513d601f19601f820116820180604052508101906102df919061066e565b6102fc576040516317d818f360e21b815260040160405180910390fd5b806001600160601b031660000361032657604051631cde341160e21b815260040160405180910390fd5b833560009081526001602090815260408083208288013584529091529020546001600160a01b0390811690819084166323b872dd61036a60a0890160808a01610690565b84866040518463ffffffff1660e01b815260040161038a939291906106ad565b6020604051808303816000875af11580156103a9573d6000803e3d6000fd5b505050506040513d601f19601f820116820180604052508101906103cd919061066e565b506001600160a01b0381166323b872dd6103ed60a0890160808a01610690565b84866040518463ffffffff1660e01b815260040161040d939291906106ad565b600060405180830381600087803b15801561042757600080fd5b505af115801561043b573d6000803e3d6000fd5b50505050818484604051602001610454939291906106ad565b604051602081830303815290604052945050505050919050565b6001600160a01b038116811461048357600080fd5b50565b60008060008060006080868803121561049e57600080fd5b853594506020860135935060408601356104b78161046e565b9250606086013567ffffffffffffffff808211156104d457600080fd5b818801915088601f8301126104e857600080fd5b8135818111156104f757600080fd5b89602082850101111561050957600080fd5b9699959850939650602001949392505050565b600060208083528351808285015260005b818110156105495785810183015185820160400152820161052d565b506000604082860101526040601f19601f8301168501019250505092915050565b60006020828403121561057c57600080fd5b813567ffffffffffffffff81111561059357600080fd5b820161012081850312156105a657600080fd5b9392505050565b600080604083850312156105c057600080fd5b82356105cb8161046e565b915060208301356105db8161046e565b809150509250929050565b6000808335601e198436030181126105fd57600080fd5b83018035915067ffffffffffffffff82111561061857600080fd5b60200191503681900382131561062d57600080fd5b9250929050565b6000806040838503121561064757600080fd5b82356106528161046e565b915060208301356001600160601b03811681146105db57600080fd5b60006020828403121561068057600080fd5b815180151581146105a657600080fd5b6000602082840312156106a257600080fd5b81356105a68161046e565b6001600160a01b0393841681529190921660208201526001600160601b0390911660408201526060019056fea2646970667358221220287a1f3c734efd7e956e7344c4f2c5af28c876a3c76706b59dc6d13ef980024e64736f6c63430008150033",
    "linkReferences": {}
  },
  "methodIdentifiers": {
    "HUB()": "a4c52b86",
    "MODULE_GLOBALS()": "88ffe851",
    "initializePublicationAction(uint256,uint256,address,bytes)": "0b960220",
    "processPublicationAction((uint256,uint256,uint256,address,address,uint256[],uint256[],uint8[],bytes))": "90ce6e08"
  },
  "id": 24
}